S01D000054726166666963206C6967687420636F6E74726F6C2E73726563EF
S11300000C942A000C9420010C9447000C94470093
S11300100C9447000C9447000C9447000C94470040
S11300200C9447000C9447000C9447000C94470030
S11300300C9447000C9447000C9447000C94470020
S11300400C9447000C9447000C9447000C94470010
S11300500C94470011241FBECFE5D8E0DEBFCDBF0E
S113006010E0A0E6B0E0ECE6F9E002C005900D92E5
S1130070A236B107D9F720E0A2E6B0E001C01D9294
S1130080A436B207E1F70E94A6010C94B4040C94C0
S1130090000061E480E00E946A0181112CC061E4E7
S11300A081E00E946A01811128C061E482E00E941B
S11300B06A01811124C063E40E946A01811121C094
S11300C063E481E00E946A0181111DC063E482E05F
S11300D00E946A01811119C064E482E00E946601F1
S11300E0811115C0789485B7836085BF8BB7806410
S11300F08BBF80E0089581E0089581E0089581E058
S1130100089581E0089581E0089581E0089581E0F3
S113011008950F931F9380916300813069F138F043
S1130120823009F448C0833009F463C085C061E4B7
S113013080E00E946E0161E481E00E94720161E44A
S113014082E00E94720163E480E00E94720163E431
S113015081E00E94720163E482E00E946E0181E00A
S1130160809363001092600060E070E080EA90E4A5
S11301700E94390380E061C061E480E00E94720162
S113018061E482E00E94720163E480E00E947201F3
S113019063E482E00E94720183E08093630081E063
S11301A08093600005E010E023E441E461E00E94F4
S11301B0790180E042C061E480E00E94720161E460
S11301C082E00E94720163E480E00E94720163E4B1
S11301D082E00E947201109263001092600005E0B8
S11301E010E023E441E461E081E00E94790180E0D1
S11301F024C061E480E00E94720161E481E00E9415
S1130200720161E482E00E946E0163E480E00E9476
S11302106E0163E481E00E94720163E482E00E9463
S1130220720182E08093630060E070E080EA90E411
S11302300E94390380E001C082E01F910F9108956C
S11302401F920F920FB60F9211242F933F934F9347
S11302505F936F937F938F939F93AF93BF93EF932A
S1130260FF9380916000882301F1109260008091D7
S11302706300823029F0833079F0811113C006C005
S113028082E0809363000E948B030FC082E080931E
S113029063000E948B0309C082E0809363000E9484
S11302A08B0303C081E080936000FF91EF91BF91C5
S11302B0AF919F918F917F916F915F914F913F91FA
S11302C02F910F900FBE0F901F90189540E00E9441
S11302D0AB01089541E00E94AB01089541E00E9402
S11302E04D02089540E00E944D0208950E94EF02DD
S11302F00895CF92DF92EF92FF920F931F93CF93C3
S1130300DF93C82ED62EE42EF22EC0E0D0E00FC02C
S11303106E2D8C2D0E9476016F2D8D2D0E947601FD
S113032060E070E080E09FE30E9439032196C801F9
S1130330880F991F8C179D075CF7DF91CF911F9150
S11303400F91FF90EF90DF90CF9008950E944900A5
S11303500E948900FDCF883008F093C0623469F1AF
S113036018F4613441F08FC0633409F448C0643434
S113037009F466C088C041110FC04AB321E030E0DF
S1130380B90102C0660F771F8A95E2F7CB01809509
S113039084238ABB80E00895413009F076C04AB3D3
S11303A021E030E0B90102C0660F771F8A95E2F7B9
S11303B0CB01842B8ABB80E0089541110FC047B361
S11303C021E030E0B90102C0660F771F8A95E2F799
S11303D0CB018095842387BB80E00895413009F0E8
S11303E056C047B321E030E0B90102C0660F771F61
S11303F08A95E2F7CB01842B87BB80E008954111F5
S11304000FC044B321E030E0B90102C0660F771F8A
S11304108A95E2F7CB018095842384BB80E008951C
S11304204130B9F544B321E030E0B90102C0660FB0
S1130430771F8A95E2F7CB01842B84BB80E0089573
S113044041110FC041B321E030E0B90102C0660F91
S1130450771F8A95E2F7CB018095842381BB80E0E6
S113046008954130C1F441B321E030E0B90102C044
S1130470660F771F8A95E2F7CB01842B81BB80E05E
S1130480089581E0089581E0089581E0089581E070
S1130490089581E0089581E00895883008F093C0BC
S11304A0623469F118F4613441F08FC0633409F4A3
S11304B048C0643409F466C088C041110FC04BB30E
S11304C021E030E0B90102C0660F771F8A95E2F798
S11304D0CB01809584238BBB80E00895413009F0E3
S11304E076C04BB321E030E0B90102C0660F771F3C
S11304F08A95E2F7CB01842B8BBB80E008954111F0
S11305000FC048B321E030E0B90102C0660F771F85
S11305108A95E2F7CB018095842388BB80E0089517
S1130520413009F056C048B321E030E0B90102C0BF
S1130530660F771F8A95E2F7CB01842B88BB80E096
S1130540089541110FC045B321E030E0B90102C064
S1130550660F771F8A95E2F7CB018095842385BBCC
S113056080E008954130B9F545B321E030E0B901A8
S113057002C0660F771F8A95E2F7CB01842B85BBF7
S113058080E0089541110FC042B321E030E0B90189
S113059002C0660F771F8A95E2F7CB01809584230A
S11305A082BB80E008954130C1F442B321E030E0E1
S11305B0B90102C0660F771F8A95E2F7CB01842B3D
S11305C082BB80E0089582E0089582E0089582E08D
S11305D0089582E0089582E0089582E008958830C5
S11305E008F043C06234B9F018F4613431F03FC00C
S11305F06334F9F0643459F13AC04BB321E030E08C
S1130600B90102C0660F771F8A95E2F7CB018427F0
S11306108BBB80E0089548B321E030E0B90102C00B
S1130620660F771F8A95E2F7CB01842788BB80E0A9
S1130630089545B321E030E0B90102C0660F771F89
S11306408A95E2F7CB01842785BB80E0089542B305
S113065021E030E0B90102C0660F771F8A95E2F706
S1130660CB01842782BB80E0089584E0089584E070
S113067008958F929F92AF92BF92CF92DF92EF92A2
S1130680FF92CF93DF934B015C0113BE8CE082BFDA
S113069083B7856083BFC0E0D0E00BC008B600FC20
S11306A002C08823D9F388B7816088BF21968CE083
S11306B082BFBE010D2E000C880B990B0E9497037C
S11306C06B017C0120E030E040E850E4C501B40156
S11306D00E94F6039B01AC01C701B6010E9490037E
S11306E0882324F4809162008823C1F280916200FF
S11306F0882321F01092620082E002C013BE80E0E1
S1130700DF91CF91FF90EF90DF90CF90BF90AF90AB
S11307109F908F90089581E08093620080E0089517
S11307200E94D20308F481E00895E89409C097FB7D
S11307303EF490958095709561957F4F8F4F9F4FB4
S11307409923A9F0F92F96E9BB279395F6958795F8
S113075077956795B795F111F8CFFAF4BB0F11F4BB
S113076060FF1BC06F5F7F4F8F4F9F4F16C0882362
S113077011F096E911C0772321F09EE8872F762F98
S113078005C0662371F096E8862F70E060E02AF0D9
S11307909A95660F771F881FDAF7880F96958795C5
S11307A097F90895990F0008550FAA0BE0E8FEEF9A
S11307B016161706E807F907C0F012161306E40721
S11307C0F50798F0621B730B840B950B39F40A261A
S11307D061F0232B242B252B21F408950A2609F4F8
S11307E0A140A6958FEF811D811D08950E940904E3
S11307F00C947A040E946C0438F00E94730420F074
S1130800952311F00C9463040C94690411240C9442
S1130810AE040E948B0470F3959FC1F3950F50E0D2
S1130820551F629FF001729FBB27F00DB11D639F9E
S1130830AA27F00DB11DAA1F649F6627B00DA11D44
S1130840661F829F2227B00DA11D621F739FB00DEA
S1130850A11D621F839FA00D611D221F749F33275A
S1130860A00D611D231F849F600D211D822F762FF3
S11308706A2F11249F5750409AF0F1F088234AF0D0
S1130880EE0FFF1FBB1F661F771F881F915050403C
S1130890A9F79E3F510580F00C9463040C94AE04B8
S11308A05F3FE4F3983ED4F3869577956795B795C3
S11308B0F795E7959F5FC1F7FE2B880F911D9695DD
S11308C0879597F9089597F99F6780E870E060E04D
S11308D008959FEF80EC089500240A9416161706D5
S11308E018060906089500240A941216130614061D
S11308F005060895092E0394000C11F4882352F080
S1130900BB0F40F4BF2B11F460FF04C06F5F7F4F37
S11309108F4F9F4F089557FD9058440F551F59F01E
S11309205F3F71F04795880F97FB991F61F09F3FD8
S113093079F087950895121613061406551FF2CF01
S11309404695F1DF08C0161617061806991FF1CF51
S113095086957105610508940895E894BB27662778
S10F09607727CB0197F90895F894FFCF96
S105096C010084
S9030000FC
